{
  "contractName": "VehicleData",
  "abi": [
    {
      "inputs": [],
      "payable": false,
      "stateMutability": "nonpayable",
      "type": "constructor"
    },
    {
      "anonymous": false,
      "inputs": [
        {
          "indexed": false,
          "internalType": "string",
          "name": "status",
          "type": "string"
        }
      ],
      "name": "Status",
      "type": "event"
    },
    {
      "anonymous": false,
      "inputs": [
        {
          "indexed": false,
          "internalType": "uint256",
          "name": "id",
          "type": "uint256"
        },
        {
          "indexed": false,
          "internalType": "string",
          "name": "color",
          "type": "string"
        },
        {
          "indexed": false,
          "internalType": "string",
          "name": "model",
          "type": "string"
        }
      ],
      "name": "VehicleDetailsChanged",
      "type": "event"
    },
    {
      "anonymous": false,
      "inputs": [
        {
          "indexed": false,
          "internalType": "uint256",
          "name": "id",
          "type": "uint256"
        },
        {
          "indexed": false,
          "internalType": "address",
          "name": "publicKey",
          "type": "address"
        },
        {
          "indexed": false,
          "internalType": "string",
          "name": "color",
          "type": "string"
        },
        {
          "indexed": false,
          "internalType": "string",
          "name": "model",
          "type": "string"
        }
      ],
      "name": "VehicleRegistered",
      "type": "event"
    },
    {
      "constant": true,
      "inputs": [],
      "name": "status",
      "outputs": [
        {
          "internalType": "string",
          "name": "",
          "type": "string"
        }
      ],
      "payable": false,
      "stateMutability": "view",
      "type": "function"
    },
    {
      "constant": true,
      "inputs": [],
      "name": "vehicleCount",
      "outputs": [
        {
          "internalType": "uint256",
          "name": "",
          "type": "uint256"
        }
      ],
      "payable": false,
      "stateMutability": "view",
      "type": "function"
    },
    {
      "constant": true,
      "inputs": [
        {
          "internalType": "uint256",
          "name": "",
          "type": "uint256"
        }
      ],
      "name": "vehicles",
      "outputs": [
        {
          "internalType": "uint256",
          "name": "id",
          "type": "uint256"
        },
        {
          "internalType": "address",
          "name": "publicKey",
          "type": "address"
        },
        {
          "internalType": "string",
          "name": "color",
          "type": "string"
        },
        {
          "internalType": "string",
          "name": "model",
          "type": "string"
        }
      ],
      "payable": false,
      "stateMutability": "view",
      "type": "function"
    },
    {
      "constant": false,
      "inputs": [
        {
          "internalType": "address",
          "name": "_publicKey",
          "type": "address"
        },
        {
          "internalType": "string",
          "name": "_color",
          "type": "string"
        },
        {
          "internalType": "string",
          "name": "_model",
          "type": "string"
        },
        {
          "internalType": "bytes32",
          "name": "hash",
          "type": "bytes32"
        },
        {
          "internalType": "bytes",
          "name": "signature",
          "type": "bytes"
        }
      ],
      "name": "registerVehicle",
      "outputs": [],
      "payable": false,
      "stateMutability": "nonpayable",
      "type": "function"
    },
    {
      "constant": false,
      "inputs": [
        {
          "internalType": "uint256",
          "name": "_id",
          "type": "uint256"
        },
        {
          "internalType": "string",
          "name": "_color",
          "type": "string"
        },
        {
          "internalType": "string",
          "name": "_model",
          "type": "string"
        },
        {
          "internalType": "bytes32",
          "name": "hash",
          "type": "bytes32"
        },
        {
          "internalType": "bytes",
          "name": "signature",
          "type": "bytes"
        }
      ],
      "name": "editVehicle",
      "outputs": [],
      "payable": false,
      "stateMutability": "nonpayable",
      "type": "function"
    },
    {
      "constant": false,
      "inputs": [
        {
          "internalType": "string",
          "name": "_status",
          "type": "string"
        },
        {
          "internalType": "bytes32",
          "name": "hash",
          "type": "bytes32"
        },
        {
          "internalType": "bytes",
          "name": "signature",
          "type": "bytes"
        },
        {
          "internalType": "uint256",
          "name": "_id",
          "type": "uint256"
        }
      ],
      "name": "changeStatus",
      "outputs": [],
      "payable": false,
      "stateMutability": "nonpayable",
      "type": "function"
    }
  ],
  "bytecode": "0x6000805560c060405260066080819052656d6f76696e6760d01b60a090815261002b916001919061003e565b5034801561003857600080fd5b506100d9565b828054600181600116156101000203166002900490600052602060002090601f016020900481019282601f1061007f57805160ff19168380011785556100ac565b828001600101855582156100ac579182015b828111156100ac578251825591602001919060010190610091565b506100b89291506100bc565b5090565b6100d691905b808211156100b857600081556001016100c2565b90565b61108880620000e96000396000f3fe608060405234801561001057600080fd5b50600436106100625760003560e01c8063200d2ed2146100675780632feffc26146100e457806393cdacfc146102a35780639970493714610469578063b216ee0a14610483578063b8ba95fa146105b6575b600080fd5b61006f6106d1565b6040805160208082528351818301528351919283929083019185019080838360005b838110156100a9578181015183820152602001610091565b50505050905090810190601f1680156100d65780820380516001836020036101000a031916815260200191505b509250505060405180910390f35b6102a1600480360360a08110156100fa57600080fd5b81359190810190604081016020820135600160201b81111561011b57600080fd5b82018360208201111561012d57600080fd5b803590602001918460018302840111600160201b8311171561014e57600080fd5b91908080601f0160208091040260200160405190810160405280939291908181526020018383808284376000920191909152509295949360208101935035915050600160201b8111156101a057600080fd5b8201836020820111156101b257600080fd5b803590602001918460018302840111600160201b831117156101d357600080fd5b91908080601f01602080910402602001604051908101604052809392919081815260200183838082843760009201919091525092958435959094909350604081019250602001359050600160201b81111561022d57600080fd5b82018360208201111561023f57600080fd5b803590602001918460018302840111600160201b8311171561026057600080fd5b91908080601f01602080910402602001604051908101604052809392919081815260200183838082843760009201919091525092955061075e945050505050565b005b6102a1600480360360a08110156102b957600080fd5b6001600160a01b038235169190810190604081016020820135600160201b8111156102e357600080fd5b8201836020820111156102f557600080fd5b803590602001918460018302840111600160201b8311171561031657600080fd5b91908080601f0160208091040260200160405190810160405280939291908181526020018383808284376000920191909152509295949360208101935035915050600160201b81111561036857600080fd5b82018360208201111561037a57600080fd5b803590602001918460018302840111600160201b8311171561039b57600080fd5b91908080601f01602080910402602001604051908101604052809392919081815260200183838082843760009201919091525092958435959094909350604081019250602001359050600160201b8111156103f557600080fd5b82018360208201111561040757600080fd5b803590602001918460018302840111600160201b8311171561042857600080fd5b91908080601f016020809104026020016040519081016040528093929190818152602001838380828437600092019190915250929550610a8a945050505050565b610471610c7c565b60408051918252519081900360200190f35b6102a16004803603608081101561049957600080fd5b810190602081018135600160201b8111156104b357600080fd5b8201836020820111156104c557600080fd5b803590602001918460018302840111600160201b831117156104e657600080fd5b91908080601f01602080910402602001604051908101604052809392919081815260200183838082843760009201919091525092958435959094909350604081019250602001359050600160201b81111561054057600080fd5b82018360208201111561055257600080fd5b803590602001918460018302840111600160201b8311171561057357600080fd5b91908080601f0160208091040260200160405190810160405280939291908181526020018383808284376000920191909152509295505091359250610c82915050565b6105d3600480360360208110156105cc57600080fd5b5035610d6e565b60405180858152602001846001600160a01b03166001600160a01b031681526020018060200180602001838103835285818151815260200191508051906020019080838360005b8381101561063257818101518382015260200161061a565b50505050905090810190601f16801561065f5780820380516001836020036101000a031916815260200191505b50838103825284518152845160209182019186019080838360005b8381101561069257818101518382015260200161067a565b50505050905090810190601f1680156106bf5780820380516001836020036101000a031916815260200191505b50965050505050505060405180910390f35b60018054604080516020600284861615610100026000190190941693909304601f810184900484028201840190925281815292918301828280156107565780601f1061072b57610100808354040283529160200191610756565b820191906000526020600020905b81548152906001019060200180831161073957829003601f168201915b505050505081565b600061076a8383610eb4565b6000878152600260205260409020600101549091506001600160a01b0380831691161461079657600080fd5b61079e610f87565b6000878152600260208181526040928390208351608081018552815481526001808301546001600160a01b03168285015282850180548751601f60001994831615610100029490940190911696909604918201859004850286018501875281865291959294928601938301828280156108585780601f1061082d57610100808354040283529160200191610858565b820191906000526020600020905b81548152906001019060200180831161083b57829003601f168201915b505050918352505060038201805460408051602060026001851615610100026000190190941693909304601f81018490048402820184019092528181529382019392918301828280156108ec5780601f106108c1576101008083540402835291602001916108ec565b820191906000526020600020905b8154815290600101906020018083116108cf57829003601f168201915b5050509190925250505060408181018881526060830188905260008a8152600260208181529390912084518155838501516001820180546001600160a01b0319166001600160a01b0390921691909117905591518051949550859492936109599392850192910190610fb8565b5060608201518051610975916003840191602090910190610fb8565b509050507f9475a638930ad1a9e014129de2d3fda1ac9ce7d0bd3a9dbfd4d9c5b2c4d7e04c878787604051808481526020018060200180602001838103835285818151815260200191508051906020019080838360005b838110156109e45781810151838201526020016109cc565b50505050905090810190601f168015610a115780820380516001836020036101000a031916815260200191505b50838103825284518152845160209182019186019080838360005b83811015610a44578181015183820152602001610a2c565b50505050905090810190601f168015610a715780820380516001836020036101000a031916815260200191505b509550505050505060405180910390a150505050505050565b6000610a968383610eb4565b9050856001600160a01b0316816001600160a01b031614610ab657600080fd5b600080546001908101808355604080516080810182528281526001600160a01b038b811660208084019182528385018d8152606085018d905295885260028082529490972083518155905195810180546001600160a01b03191696909216959095179055915180519294610b309392850192910190610fb8565b5060608201518051610b4c916003840191602090910190610fb8565b509050507fe622e0162163c942da96b6e0f20213ac252754dfc69e0bba0b805602e2fc2da460005487878760405180858152602001846001600160a01b03166001600160a01b031681526020018060200180602001838103835285818151815260200191508051906020019080838360005b83811015610bd6578181015183820152602001610bbe565b50505050905090810190601f168015610c035780820380516001836020036101000a031916815260200191505b50838103825284518152845160209182019186019080838360005b83811015610c36578181015183820152602001610c1e565b50505050905090810190601f168015610c635780820380516001836020036101000a031916815260200191505b50965050505050505060405180910390a1505050505050565b60005481565b6000610c8e8484610eb4565b6000838152600260205260409020600101549091506001600160a01b03808316911614610cba57600080fd5b8451610ccd906001906020880190610fb8565b507f2844c95bf1b4598da931d527f903501abc60fe0199c65da52d5ce818c6c5e961856040518080602001828103825283818151815260200191508051906020019080838360005b83811015610d2d578181015183820152602001610d15565b50505050905090810190601f168015610d5a5780820380516001836020036101000a031916815260200191505b509250505060405180910390a15050505050565b600260208181526000928352604092839020805460018083015483860180548851601f6000199583161561010002959095019091169790970492830186900486028701860190975281865291956001600160a01b03909216949293830182828015610e1a5780601f10610def57610100808354040283529160200191610e1a565b820191906000526020600020905b815481529060010190602001808311610dfd57829003601f168201915b5050505060038301805460408051602060026001851615610100026000190190941693909304601f8101849004840282018401909252818152949594935090830182828015610eaa5780601f10610e7f57610100808354040283529160200191610eaa565b820191906000526020600020905b815481529060010190602001808311610e8d57829003601f168201915b5050505050905084565b6000806000808451604114610ecf5760009350505050610f81565b50505060208201516040830151606084015160001a601b811015610ef157601b015b8060ff16601b14158015610f0957508060ff16601c14155b15610f1a5760009350505050610f81565b6040805160008152602080820180845289905260ff8416828401526060820186905260808201859052915160019260a0808401939192601f1981019281900390910190855afa158015610f71573d6000803e3d6000fd5b5050506020604051035193505050505b92915050565b60405180608001604052806000815260200160006001600160a01b0316815260200160608152602001606081525090565b828054600181600116156101000203166002900490600052602060002090601f016020900481019282601f10610ff957805160ff1916838001178555611026565b82800160010185558215611026579182015b8281111561102657825182559160200191906001019061100b565b50611032929150611036565b5090565b61105091905b80821115611032576000815560010161103c565b9056fea265627a7a7231582042de325c99549c92d49342352be4e08d4dcb7a1663c61d29b021c613fd51897a64736f6c63430005100032",
  "source": "// SPDX-License-Identifier: MIT\npragma solidity ^0.5.16;\n\ncontract VehicleData {\n    uint public vehicleCount = 0;\n    string public status = \"moving\";\n\n    struct Vehicle {\n        uint id;\n        address publicKey;\n        string color;\n        string model;\n    }\n\n    mapping(uint => Vehicle) public vehicles;\n\n    event VehicleRegistered(\n        uint id,\n        address publicKey,\n        string color,\n        string model\n    );\n\n    event VehicleDetailsChanged(\n        uint id,\n        string color,\n        string model\n    );\n\n    event Status(string status);\n\n    constructor() public {\n    }\n\n    function recover(bytes32 hash, bytes memory signature) private pure returns (address) {\n        bytes32 r;\n        bytes32 s;\n        uint8 v;\n\n        // Check the signature length\n        if (signature.length != 65) {\n        return (address(0));\n        }\n\n        // Divide the signature in r, s and v variables\n        // ecrecover takes the signature parameters, and the only way to get them\n        // currently is to use assembly.\n        // solium-disable-next-line security/no-inline-assembly\n        assembly {\n        r := mload(add(signature, 0x20))\n        s := mload(add(signature, 0x40))\n        v := byte(0, mload(add(signature, 0x60)))\n        }\n\n        // Version of signature should be 27 or 28, but 0 and 1 are also possible versions\n        if (v < 27) {\n        v += 27;\n        }\n\n        // If the version is correct return the signer address\n        if (v != 27 && v != 28) {\n        return (address(0));\n        } else {\n        // solium-disable-next-line arg-overflow\n        return ecrecover(hash, v, r, s);\n        }\n    }\n\n    function registerVehicle(address _publicKey, string memory _color, string memory _model, bytes32 hash, bytes memory signature) public {\n        address _signer = recover(hash, signature);\n        require(_signer == _publicKey);\n        vehicleCount++;\n        vehicles[vehicleCount] = Vehicle(vehicleCount, _publicKey, _color, _model);\n        emit VehicleRegistered(vehicleCount,  _publicKey, _color, _model);\n    }\n\n    function editVehicle(uint _id, string memory _color, string memory _model, bytes32 hash, bytes memory signature) public {\n        address _signer = recover(hash, signature);\n        require(_signer == vehicles[_id].publicKey);\n        Vehicle memory _vehicle = vehicles[_id];\n        _vehicle.color = _color;\n        _vehicle.model = _model;\n        vehicles[_id] = _vehicle; \n        emit VehicleDetailsChanged(_id, _color, _model);\n    }\n\n    function changeStatus(string memory _status, bytes32 hash, bytes memory signature, uint _id) public {\n        address _signer = recover(hash, signature);\n        require(_signer == vehicles[_id].publicKey);\n        status = _status;\n        emit Status(_status);\n    }\n}",
  "sourcePath": "/Users/abhinavsingh/Documents/Codes/project/blockchain/contracts/VehicleData.sol",
  "compiler": {
    "name": "solc",
    "version": "0.5.16+commit.9c3226ce.Emscripten.clang"
  },
  "schemaVersion": "3.4.7",
  "updatedAt": "2022-04-20T14:06:30.110Z",
  "networkType": "ethereum",
  "devdoc": {
    "methods": {}
  },
  "userdoc": {
    "methods": {}
  }
}