{
  "contractName": "VehicleData",
  "abi": [
    {
      "inputs": [],
      "payable": false,
      "stateMutability": "nonpayable",
      "type": "constructor"
    },
    {
      "anonymous": false,
      "inputs": [
        {
          "indexed": false,
          "internalType": "string",
          "name": "status",
          "type": "string"
        }
      ],
      "name": "Status",
      "type": "event"
    },
    {
      "anonymous": false,
      "inputs": [
        {
          "indexed": false,
          "internalType": "uint256",
          "name": "id",
          "type": "uint256"
        },
        {
          "indexed": false,
          "internalType": "string",
          "name": "color",
          "type": "string"
        },
        {
          "indexed": false,
          "internalType": "string",
          "name": "model",
          "type": "string"
        },
        {
          "indexed": false,
          "internalType": "uint256",
          "name": "passengerCapacity",
          "type": "uint256"
        },
        {
          "indexed": false,
          "internalType": "uint256",
          "name": "distanceCovered",
          "type": "uint256"
        },
        {
          "indexed": false,
          "internalType": "string",
          "name": "location",
          "type": "string"
        }
      ],
      "name": "VehicleDetailsChanged",
      "type": "event"
    },
    {
      "anonymous": false,
      "inputs": [
        {
          "indexed": false,
          "internalType": "uint256",
          "name": "id",
          "type": "uint256"
        },
        {
          "indexed": false,
          "internalType": "address",
          "name": "publicKey",
          "type": "address"
        },
        {
          "indexed": false,
          "internalType": "string",
          "name": "color",
          "type": "string"
        },
        {
          "indexed": false,
          "internalType": "string",
          "name": "model",
          "type": "string"
        },
        {
          "indexed": false,
          "internalType": "uint256",
          "name": "passengerCapacity",
          "type": "uint256"
        },
        {
          "indexed": false,
          "internalType": "uint256",
          "name": "distanceCovered",
          "type": "uint256"
        },
        {
          "indexed": false,
          "internalType": "string",
          "name": "location",
          "type": "string"
        }
      ],
      "name": "VehicleRegistered",
      "type": "event"
    },
    {
      "constant": true,
      "inputs": [],
      "name": "status",
      "outputs": [
        {
          "internalType": "string",
          "name": "",
          "type": "string"
        }
      ],
      "payable": false,
      "stateMutability": "view",
      "type": "function"
    },
    {
      "constant": true,
      "inputs": [],
      "name": "vehicleCount",
      "outputs": [
        {
          "internalType": "uint256",
          "name": "",
          "type": "uint256"
        }
      ],
      "payable": false,
      "stateMutability": "view",
      "type": "function"
    },
    {
      "constant": true,
      "inputs": [
        {
          "internalType": "uint256",
          "name": "",
          "type": "uint256"
        }
      ],
      "name": "vehicles",
      "outputs": [
        {
          "internalType": "uint256",
          "name": "id",
          "type": "uint256"
        },
        {
          "internalType": "address",
          "name": "publicKey",
          "type": "address"
        },
        {
          "internalType": "string",
          "name": "color",
          "type": "string"
        },
        {
          "internalType": "string",
          "name": "model",
          "type": "string"
        },
        {
          "internalType": "uint256",
          "name": "passengerCapacity",
          "type": "uint256"
        },
        {
          "internalType": "uint256",
          "name": "distanceCovered",
          "type": "uint256"
        },
        {
          "internalType": "string",
          "name": "location",
          "type": "string"
        }
      ],
      "payable": false,
      "stateMutability": "view",
      "type": "function"
    },
    {
      "constant": false,
      "inputs": [
        {
          "internalType": "address",
          "name": "_publicKey",
          "type": "address"
        },
        {
          "internalType": "string",
          "name": "_color",
          "type": "string"
        },
        {
          "internalType": "string",
          "name": "_model",
          "type": "string"
        },
        {
          "internalType": "uint256",
          "name": "_passengerCapacity",
          "type": "uint256"
        },
        {
          "internalType": "uint256",
          "name": "_distanceCovered",
          "type": "uint256"
        },
        {
          "internalType": "string",
          "name": "_location",
          "type": "string"
        },
        {
          "internalType": "bytes32",
          "name": "hash",
          "type": "bytes32"
        },
        {
          "internalType": "bytes",
          "name": "signature",
          "type": "bytes"
        }
      ],
      "name": "registerVehicle",
      "outputs": [],
      "payable": false,
      "stateMutability": "nonpayable",
      "type": "function"
    },
    {
      "constant": false,
      "inputs": [
        {
          "internalType": "uint256",
          "name": "_id",
          "type": "uint256"
        },
        {
          "internalType": "string",
          "name": "_color",
          "type": "string"
        },
        {
          "internalType": "string",
          "name": "_model",
          "type": "string"
        },
        {
          "internalType": "uint256",
          "name": "_passengerCapacity",
          "type": "uint256"
        },
        {
          "internalType": "uint256",
          "name": "_distanceCovered",
          "type": "uint256"
        },
        {
          "internalType": "string",
          "name": "_location",
          "type": "string"
        },
        {
          "internalType": "bytes32",
          "name": "hash",
          "type": "bytes32"
        },
        {
          "internalType": "bytes",
          "name": "signature",
          "type": "bytes"
        }
      ],
      "name": "editVehicle",
      "outputs": [],
      "payable": false,
      "stateMutability": "nonpayable",
      "type": "function"
    },
    {
      "constant": false,
      "inputs": [
        {
          "internalType": "string",
          "name": "_status",
          "type": "string"
        },
        {
          "internalType": "bytes32",
          "name": "hash",
          "type": "bytes32"
        },
        {
          "internalType": "bytes",
          "name": "signature",
          "type": "bytes"
        },
        {
          "internalType": "uint256",
          "name": "_id",
          "type": "uint256"
        }
      ],
      "name": "changeStatus",
      "outputs": [],
      "payable": false,
      "stateMutability": "nonpayable",
      "type": "function"
    }
  ],
  "bytecode": "0x6000805560c060405260066080819052651b9bdc9b585b60d21b60a09081526200002d916001919062000042565b503480156200003b57600080fd5b50620000e7565b828054600181600116156101000203166002900490600052602060002090601f016020900481019282601f106200008557805160ff1916838001178555620000b5565b82800160010185558215620000b5579182015b82811115620000b557825182559160200191906001019062000098565b50620000c3929150620000c7565b5090565b620000e491905b80821115620000c35760008155600101620000ce565b90565b61153a80620000f76000396000f3fe608060405234801561001057600080fd5b50600436106100625760003560e01c8063200d2ed2146100675780635e544202146100e4578063997049371461033e578063b216ee0a14610358578063b8ba95fa1461048b578063f822d1fe1461061a575b600080fd5b61006f610869565b6040805160208082528351818301528351919283929083019185019080838360005b838110156100a9578181015183820152602001610091565b50505050905090810190601f1680156100d65780820380516001836020036101000a031916815260200191505b509250505060405180910390f35b61033c60048036036101008110156100fb57600080fd5b6001600160a01b038235169190810190604081016020820135600160201b81111561012557600080fd5b82018360208201111561013757600080fd5b803590602001918460018302840111600160201b8311171561015857600080fd5b91908080601f0160208091040260200160405190810160405280939291908181526020018383808284376000920191909152509295949360208101935035915050600160201b8111156101aa57600080fd5b8201836020820111156101bc57600080fd5b803590602001918460018302840111600160201b831117156101dd57600080fd5b91908080601f0160208091040260200160405190810160405280939291908181526020018383808284376000920191909152509295843595602086013595919450925060608101915060400135600160201b81111561023b57600080fd5b82018360208201111561024d57600080fd5b803590602001918460018302840111600160201b8311171561026e57600080fd5b91908080601f01602080910402602001604051908101604052809392919081815260200183838082843760009201919091525092958435959094909350604081019250602001359050600160201b8111156102c857600080fd5b8201836020820111156102da57600080fd5b803590602001918460018302840111600160201b831117156102fb57600080fd5b91908080601f0160208091040260200160405190810160405280939291908181526020018383808284376000920191909152509295506108f6945050505050565b005b610346610bce565b60408051918252519081900360200190f35b61033c6004803603608081101561036e57600080fd5b810190602081018135600160201b81111561038857600080fd5b82018360208201111561039a57600080fd5b803590602001918460018302840111600160201b831117156103bb57600080fd5b91908080601f01602080910402602001604051908101604052809392919081815260200183838082843760009201919091525092958435959094909350604081019250602001359050600160201b81111561041557600080fd5b82018360208201111561042757600080fd5b803590602001918460018302840111600160201b8311171561044857600080fd5b91908080601f0160208091040260200160405190810160405280939291908181526020018383808284376000920191909152509295505091359250610bd4915050565b6104a8600480360360208110156104a157600080fd5b5035610cc0565b60405180888152602001876001600160a01b03166001600160a01b03168152602001806020018060200186815260200185815260200180602001848103845289818151815260200191508051906020019080838360005b838110156105175781810151838201526020016104ff565b50505050905090810190601f1680156105445780820380516001836020036101000a031916815260200191505b5084810383528851815288516020918201918a019080838360005b8381101561057757818101518382015260200161055f565b50505050905090810190601f1680156105a45780820380516001836020036101000a031916815260200191505b50848103825285518152855160209182019187019080838360005b838110156105d75781810151838201526020016105bf565b50505050905090810190601f1680156106045780820380516001836020036101000a031916815260200191505b509a505050505050505050505060405180910390f35b61033c600480360361010081101561063157600080fd5b81359190810190604081016020820135600160201b81111561065257600080fd5b82018360208201111561066457600080fd5b803590602001918460018302840111600160201b8311171561068557600080fd5b91908080601f0160208091040260200160405190810160405280939291908181526020018383808284376000920191909152509295949360208101935035915050600160201b8111156106d757600080fd5b8201836020820111156106e957600080fd5b803590602001918460018302840111600160201b8311171561070a57600080fd5b91908080601f0160208091040260200160405190810160405280939291908181526020018383808284376000920191909152509295843595602086013595919450925060608101915060400135600160201b81111561076857600080fd5b82018360208201111561077a57600080fd5b803590602001918460018302840111600160201b8311171561079b57600080fd5b91908080601f01602080910402602001604051908101604052809392919081815260200183838082843760009201919091525092958435959094909350604081019250602001359050600160201b8111156107f557600080fd5b82018360208201111561080757600080fd5b803590602001918460018302840111600160201b8311171561082857600080fd5b91908080601f016020809104026020016040519081016040528093929190818152602001838380828437600092019190915250929550610eb0945050505050565b60018054604080516020600284861615610100026000190190941693909304601f810184900484028201840190925281815292918301828280156108ee5780601f106108c3576101008083540402835291602001916108ee565b820191906000526020600020905b8154815290600101906020018083116108d157829003601f168201915b505050505081565b60006109028383611351565b9050886001600160a01b0316816001600160a01b03161461092257600080fd5b60008081548092919060010191905055506040518060e0016040528060005481526020018a6001600160a01b031681526020018981526020018881526020018781526020018681526020018581525060026000805481526020019081526020016000206000820151816000015560208201518160010160006101000a8154816001600160a01b0302191690836001600160a01b0316021790555060408201518160020190805190602001906109d8929190611424565b50606082015180516109f4916003840191602090910190611424565b506080820151600482015560a0820151600582015560c08201518051610a24916006840191602090910190611424565b509050507f23d6a2b6c6e12e41f2dd9323ea27ad0a881e5cf42119d2fee56b33cd255af0816000548a8a8a8a8a8a60405180888152602001876001600160a01b03166001600160a01b03168152602001806020018060200186815260200185815260200180602001848103845289818151815260200191508051906020019080838360005b83811015610ac1578181015183820152602001610aa9565b50505050905090810190601f168015610aee5780820380516001836020036101000a031916815260200191505b5084810383528851815288516020918201918a019080838360005b83811015610b21578181015183820152602001610b09565b50505050905090810190601f168015610b4e5780820380516001836020036101000a031916815260200191505b50848103825285518152855160209182019187019080838360005b83811015610b81578181015183820152602001610b69565b50505050905090810190601f168015610bae5780820380516001836020036101000a031916815260200191505b509a505050505050505050505060405180910390a1505050505050505050565b60005481565b6000610be08484611351565b6000838152600260205260409020600101549091506001600160a01b03808316911614610c0c57600080fd5b8451610c1f906001906020880190611424565b507f2844c95bf1b4598da931d527f903501abc60fe0199c65da52d5ce818c6c5e961856040518080602001828103825283818151815260200191508051906020019080838360005b83811015610c7f578181015183820152602001610c67565b50505050905090810190601f168015610cac5780820380516001836020036101000a031916815260200191505b509250505060405180910390a15050505050565b600260208181526000928352604092839020805460018083015483860180548851601f6000199583161561010002959095019091169790970492830186900486028701860190975281865291956001600160a01b03909216949293830182828015610d6c5780601f10610d4157610100808354040283529160200191610d6c565b820191906000526020600020905b815481529060010190602001808311610d4f57829003601f168201915b5050505060038301805460408051602060026001851615610100026000190190941693909304601f8101849004840282018401909252818152949594935090830182828015610dfc5780601f10610dd157610100808354040283529160200191610dfc565b820191906000526020600020905b815481529060010190602001808311610ddf57829003601f168201915b505050505090806004015490806005015490806006018054600181600116156101000203166002900480601f016020809104026020016040519081016040528092919081815260200182805460018160011615610100020316600290048015610ea65780601f10610e7b57610100808354040283529160200191610ea6565b820191906000526020600020905b815481529060010190602001808311610e8957829003601f168201915b5050505050905087565b6000610ebc8383611351565b60008a8152600260205260409020600101549091506001600160a01b03808316911614610ee857600080fd5b610ef06114a2565b60008a815260026020818152604092839020835160e081018552815481526001808301546001600160a01b03168285015282850180548751601f6000199483161561010002949094019091169690960491820185900485028601850187528186529195929492860193830182828015610faa5780601f10610f7f57610100808354040283529160200191610faa565b820191906000526020600020905b815481529060010190602001808311610f8d57829003601f168201915b505050918352505060038201805460408051602060026001851615610100026000190190941693909304601f810184900484028201840190925281815293820193929183018282801561103e5780601f106110135761010080835404028352916020019161103e565b820191906000526020600020905b81548152906001019060200180831161102157829003601f168201915b505050505081526020016004820154815260200160058201548152602001600682018054600181600116156101000203166002900480601f0160208091040260200160405190810160405280929190818152602001828054600181600116156101000203166002900480156110f45780601f106110c9576101008083540402835291602001916110f4565b820191906000526020600020905b8154815290600101906020018083116110d757829003601f168201915b5050509190925250505060408181018b8152606083018b9052608083018a905260a0830189905260c0830188905260008d8152600260208181529390912084518155838501516001820180546001600160a01b0319166001600160a01b0390921691909117905591518051949550859492936111769392850192910190611424565b5060608201518051611192916003840191602090910190611424565b506080820151600482015560a0820151600582015560c082015180516111c2916006840191602090910190611424565b509050507ffc9701d2402b96c12ad4d87c1f7c80931bea2f43900b4380d7bf286d12bc85468a8a8a8a8a8a60405180878152602001806020018060200186815260200185815260200180602001848103845289818151815260200191508051906020019080838360005b8381101561124457818101518382015260200161122c565b50505050905090810190601f1680156112715780820380516001836020036101000a031916815260200191505b5084810383528851815288516020918201918a019080838360005b838110156112a457818101518382015260200161128c565b50505050905090810190601f1680156112d15780820380516001836020036101000a031916815260200191505b50848103825285518152855160209182019187019080838360005b838110156113045781810151838201526020016112ec565b50505050905090810190601f1680156113315780820380516001836020036101000a031916815260200191505b50995050505050505050505060405180910390a150505050505050505050565b600080600080845160411461136c576000935050505061141e565b50505060208201516040830151606084015160001a601b81101561138e57601b015b8060ff16601b141580156113a657508060ff16601c14155b156113b7576000935050505061141e565b6040805160008152602080820180845289905260ff8416828401526060820186905260808201859052915160019260a0808401939192601f1981019281900390910190855afa15801561140e573d6000803e3d6000fd5b5050506020604051035193505050505b92915050565b828054600181600116156101000203166002900490600052602060002090601f016020900481019282601f1061146557805160ff1916838001178555611492565b82800160010185558215611492579182015b82811115611492578251825591602001919060010190611477565b5061149e9291506114e8565b5090565b6040518060e001604052806000815260200160006001600160a01b0316815260200160608152602001606081526020016000815260200160008152602001606081525090565b61150291905b8082111561149e57600081556001016114ee565b9056fea265627a7a723158203c5ba8db38b2938c4a8ada6ee405dfdb38bdc850c552bccaa8b43daa92ba40df64736f6c63430005100032",
  "source": "// SPDX-License-Identifier: MIT\npragma solidity ^0.5.16;\n\ncontract VehicleData {\n    uint public vehicleCount = 0;\n    string public status = \"normal\";\n\n    struct Vehicle {\n        uint id;\n        address publicKey;\n        string color;\n        string model;\n        uint passengerCapacity;\n        uint distanceCovered;\n        string location;\n    }\n\n    mapping(uint => Vehicle) public vehicles;\n\n    event VehicleRegistered(\n        uint id,\n        address publicKey,\n        string color,\n        string model,\n        uint passengerCapacity,\n        uint distanceCovered,\n        string location\n    );\n\n    event VehicleDetailsChanged(\n        uint id,\n        string color,\n        string model,\n        uint passengerCapacity,\n        uint distanceCovered,\n        string location\n    );\n\n    event Status(string status);\n\n    constructor() public {\n    }\n\n    function recover(bytes32 hash, bytes memory signature) private pure returns (address) {\n        bytes32 r;\n        bytes32 s;\n        uint8 v;\n\n        // Check the signature length\n        if (signature.length != 65) {\n            return (address(0));\n        }\n\n        // Divide the signature in r, s and v variables\n        // ecrecover takes the signature parameters, and the only way to get them\n        // currently is to use assembly.\n        // solium-disable-next-line security/no-inline-assembly\n        assembly {\n            r := mload(add(signature, 0x20))\n            s := mload(add(signature, 0x40))\n            v := byte(0, mload(add(signature, 0x60)))\n        }\n\n        // Version of signature should be 27 or 28, but 0 and 1 are also possible versions\n        if (v < 27) {\n            v += 27;\n        }\n\n        // If the version is correct return the signer address\n        if (v != 27 && v != 28) {\n            return (address(0));\n        } else {\n            // solium-disable-next-line arg-overflow\n            return ecrecover(hash, v, r, s);\n        }\n    }\n\n    function registerVehicle(\n        address _publicKey, \n        string memory _color, \n        string memory _model, \n        uint _passengerCapacity, \n        uint _distanceCovered, \n        string memory _location,  \n        bytes32 hash, \n        bytes memory signature\n        ) public {\n        address _signer = recover(hash, signature);\n        require(_signer == _publicKey);\n        vehicleCount++;\n        vehicles[vehicleCount] = Vehicle(vehicleCount, _publicKey, _color, _model, _passengerCapacity, _distanceCovered, _location);\n        emit VehicleRegistered(vehicleCount,  _publicKey, _color, _model, _passengerCapacity, _distanceCovered, _location);\n    }\n\n    function editVehicle(\n        uint _id, \n        string memory _color, \n        string memory _model, \n        uint _passengerCapacity, \n        uint _distanceCovered, \n        string memory _location,  \n        bytes32 hash, \n        bytes memory signature\n        ) public {\n        address _signer = recover(hash, signature);\n        require(_signer == vehicles[_id].publicKey);\n        Vehicle memory _vehicle = vehicles[_id];\n        _vehicle.color = _color;\n        _vehicle.model = _model;\n        _vehicle.passengerCapacity = _passengerCapacity;\n        _vehicle.distanceCovered = _distanceCovered;\n        _vehicle.location = _location;\n        vehicles[_id] = _vehicle; \n        emit VehicleDetailsChanged(_id, _color, _model, _passengerCapacity, _distanceCovered, _location);\n    }\n\n    function changeStatus(string memory _status, bytes32 hash, bytes memory signature, uint _id) public {\n        address _signer = recover(hash, signature);\n        require(_signer == vehicles[_id].publicKey);\n        status = _status;\n        emit Status(_status);\n    }\n}",
  "sourcePath": "/Users/abhinavsingh/Documents/Codes/project/blockchain/contracts/VehicleData.sol",
  "compiler": {
    "name": "solc",
    "version": "0.5.16+commit.9c3226ce.Emscripten.clang"
  },
  "schemaVersion": "3.4.7",
  "updatedAt": "2022-04-23T07:37:12.808Z",
  "networkType": "ethereum",
  "devdoc": {
    "methods": {}
  },
  "userdoc": {
    "methods": {}
  }
}